{"abi":[{"type":"constructor","inputs":[{"name":"_collateral","type":"address","internalType":"address"},{"name":"_resolver","type":"address","internalType":"address"},{"name":"_feeBps","type":"uint256","internalType":"uint256"}],"stateMutability":"nonpayable"},{"type":"function","name":"addLiquidity","inputs":[{"name":"marketId","type":"uint256","internalType":"uint256"},{"name":"amount","type":"uint256","internalType":"uint256"}],"outputs":[],"stateMutability":"nonpayable"},{"type":"function","name":"buyOutcome","inputs":[{"name":"marketId","type":"uint256","internalType":"uint256"},{"name":"outcome","type":"uint8","internalType":"uint8"},{"name":"amountIn","type":"uint256","internalType":"uint256"},{"name":"minSharesOut","type":"uint256","internalType":"uint256"}],"outputs":[{"name":"sharesOut","type":"uint256","internalType":"uint256"}],"stateMutability":"nonpayable"},{"type":"function","name":"collateral","inputs":[],"outputs":[{"name":"","type":"address","internalType":"contract IERC20"}],"stateMutability":"view"},{"type":"function","name":"createMarket","inputs":[{"name":"question","type":"string","internalType":"string"}],"outputs":[{"name":"marketId","type":"uint256","internalType":"uint256"}],"stateMutability":"nonpayable"},{"type":"function","name":"feeBps","inputs":[],"outputs":[{"name":"","type":"uint256","internalType":"uint256"}],"stateMutability":"view"},{"type":"function","name":"getBuyAmountOut","inputs":[{"name":"marketId","type":"uint256","internalType":"uint256"},{"name":"outcome","type":"uint8","internalType":"uint8"},{"name":"amountIn","type":"uint256","internalType":"uint256"}],"outputs":[{"name":"","type":"uint256","internalType":"uint256"}],"stateMutability":"view"},{"type":"function","name":"getSellAmountOut","inputs":[{"name":"marketId","type":"uint256","internalType":"uint256"},{"name":"outcome","type":"uint8","internalType":"uint8"},{"name":"sharesIn","type":"uint256","internalType":"uint256"}],"outputs":[{"name":"","type":"uint256","internalType":"uint256"}],"stateMutability":"view"},{"type":"function","name":"getYesProbability","inputs":[{"name":"marketId","type":"uint256","internalType":"uint256"}],"outputs":[{"name":"","type":"uint256","internalType":"uint256"}],"stateMutability":"view"},{"type":"function","name":"marketCount","inputs":[],"outputs":[{"name":"","type":"uint256","internalType":"uint256"}],"stateMutability":"view"},{"type":"function","name":"markets","inputs":[{"name":"","type":"uint256","internalType":"uint256"}],"outputs":[{"name":"question","type":"string","internalType":"string"},{"name":"yesReserve","type":"uint256","internalType":"uint256"},{"name":"noReserve","type":"uint256","internalType":"uint256"},{"name":"resolved","type":"bool","internalType":"bool"},{"name":"winningOutcome","type":"uint8","internalType":"uint8"}],"stateMutability":"view"},{"type":"function","name":"owner","inputs":[],"outputs":[{"name":"","type":"address","internalType":"address"}],"stateMutability":"view"},{"type":"function","name":"positions","inputs":[{"name":"","type":"address","internalType":"address"},{"name":"","type":"uint256","internalType":"uint256"},{"name":"","type":"uint8","internalType":"uint8"}],"outputs":[{"name":"","type":"uint256","internalType":"uint256"}],"stateMutability":"view"},{"type":"function","name":"redeem","inputs":[{"name":"marketId","type":"uint256","internalType":"uint256"}],"outputs":[],"stateMutability":"nonpayable"},{"type":"function","name":"resolve","inputs":[{"name":"marketId","type":"uint256","internalType":"uint256"},{"name":"outcome","type":"uint8","internalType":"uint8"}],"outputs":[],"stateMutability":"nonpayable"},{"type":"function","name":"resolver","inputs":[],"outputs":[{"name":"","type":"address","internalType":"address"}],"stateMutability":"view"},{"type":"function","name":"sellOutcome","inputs":[{"name":"marketId","type":"uint256","internalType":"uint256"},{"name":"outcome","type":"uint8","internalType":"uint8"},{"name":"sharesIn","type":"uint256","internalType":"uint256"},{"name":"minAmountOut","type":"uint256","internalType":"uint256"}],"outputs":[{"name":"amountOut","type":"uint256","internalType":"uint256"}],"stateMutability":"nonpayable"},{"type":"event","name":"Bought","inputs":[{"name":"marketId","type":"uint256","indexed":true,"internalType":"uint256"},{"name":"outcome","type":"uint8","indexed":false,"internalType":"uint8"},{"name":"amountIn","type":"uint256","indexed":false,"internalType":"uint256"},{"name":"sharesOut","type":"uint256","indexed":false,"internalType":"uint256"},{"name":"buyer","type":"address","indexed":false,"internalType":"address"}],"anonymous":false},{"type":"event","name":"LiquidityAdded","inputs":[{"name":"marketId","type":"uint256","indexed":true,"internalType":"uint256"},{"name":"amount","type":"uint256","indexed":false,"internalType":"uint256"}],"anonymous":false},{"type":"event","name":"MarketCreated","inputs":[{"name":"marketId","type":"uint256","indexed":true,"internalType":"uint256"},{"name":"question","type":"string","indexed":false,"internalType":"string"}],"anonymous":false},{"type":"event","name":"Redeemed","inputs":[{"name":"marketId","type":"uint256","indexed":true,"internalType":"uint256"},{"name":"user","type":"address","indexed":false,"internalType":"address"},{"name":"amount","type":"uint256","indexed":false,"internalType":"uint256"}],"anonymous":false},{"type":"event","name":"Resolved","inputs":[{"name":"marketId","type":"uint256","indexed":true,"internalType":"uint256"},{"name":"outcome","type":"uint8","indexed":false,"internalType":"uint8"}],"anonymous":false},{"type":"event","name":"Sold","inputs":[{"name":"marketId","type":"uint256","indexed":true,"internalType":"uint256"},{"name":"outcome","type":"uint8","indexed":false,"internalType":"uint8"},{"name":"sharesIn","type":"uint256","indexed":false,"internalType":"uint256"},{"name":"amountOut","type":"uint256","indexed":false,"internalType":"uint256"},{"name":"seller","type":"address","indexed":false,"internalType":"address"}],"anonymous":false},{"type":"error","name":"InsufficientBalance","inputs":[]},{"type":"error","name":"InsufficientOutput","inputs":[]},{"type":"error","name":"InvalidOutcome","inputs":[]},{"type":"error","name":"MarketResolved","inputs":[]},{"type":"error","name":"Unauthorized","inputs":[]}],"bytecode":{"object":"0x60a06040523480156200001157600080fd5b50604051620024d5380380620024d58339818101604052810190620000379190620001a1565b8273ffffffffffffffffffffffffffffffffffffffff1660808173ffffffffffffffffffffffffffffffffffffffff1681525050336000806101000a81548173ffffffffffffffffffffffffffffffffffffffff021916908373ffffffffffffffffffffffffffffffffffffffff16021790555081600160006101000a81548173ffffffffffffffffffffffffffffffffffffffff021916908373ffffffffffffffffffffffffffffffffffffffff16021790555080600281905550505050620001fd565b600080fd5b600073ffffffffffffffffffffffffffffffffffffffff82169050919050565b60006200012e8262000101565b9050919050565b620001408162000121565b81146200014c57600080fd5b50565b600081519050620001608162000135565b92915050565b6000819050919050565b6200017b8162000166565b81146200018757600080fd5b50565b6000815190506200019b8162000170565b92915050565b600080600060608486031215620001bd57620001bc620000fc565b5b6000620001cd868287016200014f565b9350506020620001e0868287016200014f565b9250506040620001f3868287016200018a565b9150509250925092565b6080516122a0620002356000396000818161092101528181610c9601528181610eed01528181610fb101526113f001526122a06000f3fe608060405234801561001057600080fd5b50600436106101005760003560e01c80639cd441da11610097578063dae046ae11610066578063dae046ae146102d9578063db006a7514610309578063ec97908214610325578063f96d035c1461034357610100565b80639cd441da1461023b578063a7d1e1ef14610257578063b1283e7714610287578063d8dfeb45146102bb57610100565b80636e684c0d116100d35780636e684c0d146101a15780638b47645d146101d15780638da5cb5b146102015780639c0e16081461021f57610100565b806304f3bcec14610105578063191d42481461012357806324a9d8531461015357806354888f5514610171575b600080fd5b61010d610373565b60405161011a91906115d9565b60405180910390f35b61013d6004803603810190610138919061166d565b610399565b60405161014a91906116cf565b60405180910390f35b61015b61042b565b60405161016891906116cf565b60405180910390f35b61018b6004803603810190610186919061174f565b610431565b60405161019891906116cf565b60405180910390f35b6101bb60048036038101906101b6919061166d565b610581565b6040516101c891906116cf565b60405180910390f35b6101eb60048036038101906101e6919061179c565b61061d565b6040516101f891906116cf565b60405180910390f35b610209610a08565b60405161021691906115d9565b60405180910390f35b61023960048036038101906102349190611803565b610a2c565b005b61025560048036038101906102509190611843565b610c34565b005b610271600480360381019061026c9190611883565b610da8565b60405161027e91906116cf565b60405180910390f35b6102a1600480360381019061029c9190611883565b610e13565b6040516102b295949392919061196a565b60405180910390f35b6102c3610eeb565b6040516102d09190611a23565b60405180910390f35b6102f360048036038101906102ee919061179c565b610f0f565b60405161030091906116cf565b60405180910390f35b610323600480360381019061031e9190611883565b611248565b005b61032d6114cc565b60405161033a91906116cf565b60405180910390f35b61035d60048036038101906103589190611a6a565b6114d2565b60405161036a91906116cf565b60405180910390f35b600160009054906101000a900473ffffffffffffffffffffffffffffffffffffffff1681565b60008060036000868152602001908152602001600020905060006103f28460008760ff16146103cc5783600201546103d2565b83600101545b60008860ff16146103e75784600101546103ed565b84600201545b611504565b90506000612710600254836104079190611aec565b6104119190611b5d565b9050808261041f9190611b8e565b93505050509392505050565b60025481565b60006004600081548092919061044690611bc2565b9190505590506040518060a0016040528084848080601f016020809104026020016040519081016040528093929190818152602001838380828437600081840152601f19601f8201169050808301925050505050505081526020016000815260200160008152602001600015158152602001600060ff168152506003600083815260200190815260200160002060008201518160000190816104e89190611e3b565b50602082015181600101556040820151816002015560608201518160030160006101000a81548160ff02191690831515021790555060808201518160030160016101000a81548160ff021916908360ff160217905550905050807f218577c5bc2b73a2bfcbd5e49be9f73d7baadac57a71efdffe54f3b4489cc0ab8484604051610573929190611f49565b60405180910390a292915050565b6000806003600086815260200190815260200160002090506000612710600254856105ac9190611aec565b6105b69190611b5d565b9050600081856105c69190611b8e565b90506000808760ff16146105de5783600101546105e4565b83600201545b90506000808860ff16146105fc578460020154610602565b84600101545b905061060f83838361154e565b955050505050509392505050565b600060018460ff16111561065d576040517fc74a206d00000000000000000000000000000000000000000000000000000000815260040160405180910390fd5b60006003600087815260200190815260200160002090508060030160009054906101000a900460ff16156106bd576040517f55e8cb5f00000000000000000000000000000000000000000000000000000000815260040160405180910390fd5b83600560003373ffffffffffffffffffffffffffffffffffffffff1673ffffffffffffffffffffffffffffffffffffffff168152602001908152602001600020600088815260200190815260200160002060008760ff1660ff16815260200190815260200160002054101561075e576040517ff4d678b800000000000000000000000000000000000000000000000000000000815260040160405180910390fd5b6000808660ff161461077457816002015461077a565b81600101545b90506000808760ff1614610792578260010154610798565b82600201545b90506107a5868383611504565b93506000612710600254866107ba9190611aec565b6107c49190611b5d565b905080856107d29190611b8e565b94508585101561080e576040517fbb2875c300000000000000000000000000000000000000000000000000000000815260040160405180910390fd5b60008860ff160361085f578684600101600082825461082d9190611f6d565b9250508190555080856108409190611f6d565b8460020160008282546108539190611b8e565b925050819055506108a1565b868460020160008282546108739190611f6d565b9250508190555080856108869190611f6d565b8460010160008282546108999190611b8e565b925050819055505b86600560003373ffffffffffffffffffffffffffffffffffffffff1673ffffffffffffffffffffffffffffffffffffffff16815260200190815260200160002060008b815260200190815260200160002060008a60ff1660ff16815260200190815260200160002060008282546109189190611b8e565b925050819055507f000000000000000000000000000000000000000000000000000000000000000073ffffffffffffffffffffffffffffffffffffffff1663a9059cbb33876040518363ffffffff1660e01b815260040161097a929190611fa1565b6020604051808303816000875af1158015610999573d6000803e3d6000fd5b505050506040513d601f19601f820116820180604052508101906109bd9190611ff6565b50887fa66593c3ea5a2b2e55119e8f8cea3959f985ce695f97ec84da7521643ff93042898988336040516109f49493929190612023565b60405180910390a250505050949350505050565b60008054906101000a900473ffffffffffffffffffffffffffffffffffffffff1681565b600160009054906101000a900473ffffffffffffffffffffffffffffffffffffffff1673ffffffffffffffffffffffffffffffffffffffff163373ffffffffffffffffffffffffffffffffffffffff1614158015610ad6575060008054906101000a900473ffffffffffffffffffffffffffffffffffffffff1673ffffffffffffffffffffffffffffffffffffffff163373ffffffffffffffffffffffffffffffffffffffff1614155b15610b0d576040517f82b4290000000000000000000000000000000000000000000000000000000000815260040160405180910390fd5b60006003600084815260200190815260200160002090508060030160009054906101000a900460ff1615610b76576040517f08c379a0000000000000000000000000000000000000000000000000000000008152600401610b6d906120b4565b60405180910390fd5b60018260ff161115610bbd576040517f08c379a0000000000000000000000000000000000000000000000000000000008152600401610bb490612120565b60405180910390fd5b60018160030160006101000a81548160ff021916908315150217905550818160030160016101000a81548160ff021916908360ff160217905550827f8a1c7850cb95b6648c597d19ad5a66ce32698f83f344546e66f4229ce5dacff983604051610c279190612140565b60405180910390a2505050565b60006003600084815260200190815260200160002090508060030160009054906101000a900460ff1615610c94576040517f55e8cb5f00000000000000000000000000000000000000000000000000000000815260040160405180910390fd5b7f000000000000000000000000000000000000000000000000000000000000000073ffffffffffffffffffffffffffffffffffffffff166323b872dd3330856040518463ffffffff1660e01b8152600401610cf19392919061215b565b6020604051808303816000875af1158015610d10573d6000803e3d6000fd5b505050506040513d601f19601f82011682018060405250810190610d349190611ff6565b5081816001016000828254610d499190611f6d565b9250508190555081816002016000828254610d649190611f6d565b92505081905550827f38f8a0c92f4c5b0b6877f878cb4c0c8d348a47b76d716c8e78f425043df9515b83604051610d9b91906116cf565b60405180910390a2505050565b600080600360008481526020019081526020016000209050600081600201548260010154610dd69190611f6d565b905060008103610dec5761138892505050610e0e565b806127108360010154610dff9190611aec565b610e099190611b5d565b925050505b919050565b6003602052806000526040600020600091509050806000018054610e3690611c68565b80601f0160208091040260200160405190810160405280929190818152602001828054610e6290611c68565b8015610eaf5780601f10610e8457610100808354040283529160200191610eaf565b820191906000526020600020905b815481529060010190602001808311610e9257829003601f168201915b5050505050908060010154908060020154908060030160009054906101000a900460ff16908060030160019054906101000a900460ff16905085565b7f000000000000000000000000000000000000000000000000000000000000000081565b600060018460ff161115610f4f576040517fc74a206d00000000000000000000000000000000000000000000000000000000815260040160405180910390fd5b60006003600087815260200190815260200160002090508060030160009054906101000a900460ff1615610faf576040517f55e8cb5f00000000000000000000000000000000000000000000000000000000815260040160405180910390fd5b7f000000000000000000000000000000000000000000000000000000000000000073ffffffffffffffffffffffffffffffffffffffff166323b872dd3330876040518463ffffffff1660e01b815260040161100c9392919061215b565b6020604051808303816000875af115801561102b573d6000803e3d6000fd5b505050506040513d601f19601f8201168201806040525081019061104f9190611ff6565b506000612710600254866110639190611aec565b61106d9190611b5d565b90506000818661107d9190611b8e565b90506000808860ff161461109557836001015461109b565b83600201545b90506000808960ff16146110b35784600201546110b9565b84600101545b90506110c683838361154e565b955086861015611102576040517fbb2875c300000000000000000000000000000000000000000000000000000000815260040160405180910390fd5b60008960ff160361114857858560010160008282546111219190611b8e565b925050819055508285600201600082825461113c9190611f6d565b9250508190555061117f565b8585600201600082825461115c9190611b8e565b92505081905550828560010160008282546111779190611f6d565b925050819055505b85600560003373ffffffffffffffffffffffffffffffffffffffff1673ffffffffffffffffffffffffffffffffffffffff16815260200190815260200160002060008c815260200190815260200160002060008b60ff1660ff16815260200190815260200160002060008282546111f69190611f6d565b92505081905550897fe1800f695ede7050a63f6baa9ed1c486843c80f6903dbb088006e688d9eca9e98a8a89336040516112339493929190612023565b60405180910390a25050505050949350505050565b60006003600083815260200190815260200160002090508060030160009054906101000a900460ff166112b0576040517f08c379a00000000000000000000000000000000000000000000000000000000081526004016112a7906121de565b60405180910390fd5b6000600560003373ffffffffffffffffffffffffffffffffffffffff1673ffffffffffffffffffffffffffffffffffffffff168152602001908152602001600020600084815260200190815260200160002060008360030160019054906101000a900460ff1660ff1660ff16815260200190815260200160002054905060008111611370576040517f08c379a00000000000000000000000000000000000000000000000000000000081526004016113679061224a565b60405180910390fd5b6000600560003373ffffffffffffffffffffffffffffffffffffffff1673ffffffffffffffffffffffffffffffffffffffff168152602001908152602001600020600085815260200190815260200160002060008460030160019054906101000a900460ff1660ff1660ff168152602001908152602001600020819055507f000000000000000000000000000000000000000000000000000000000000000073ffffffffffffffffffffffffffffffffffffffff1663a9059cbb33836040518363ffffffff1660e01b8152600401611449929190611fa1565b6020604051808303816000875af1158015611468573d6000803e3d6000fd5b505050506040513d601f19601f8201168201806040525081019061148c9190611ff6565b50827fa18626381edd3d7a115c4a09f678bb79665034a541affcdba9fe65a1d3d107ee33836040516114bf929190611fa1565b60405180910390a2505050565b60045481565b600560205282600052604060002060205281600052604060002060205280600052604060002060009250925050505481565b6000808314806115145750600082145b156115225760009050611547565b838361152e9190611f6d565b848361153a9190611aec565b6115449190611b5d565b90505b9392505050565b60008083148061155e5750600082145b1561156c5760009050611591565b83836115789190611f6d565b84836115849190611aec565b61158e9190611b5d565b90505b9392505050565b600073ffffffffffffffffffffffffffffffffffffffff82169050919050565b60006115c382611598565b9050919050565b6115d3816115b8565b82525050565b60006020820190506115ee60008301846115ca565b92915050565b600080fd5b600080fd5b6000819050919050565b611611816115fe565b811461161c57600080fd5b50565b60008135905061162e81611608565b92915050565b600060ff82169050919050565b61164a81611634565b811461165557600080fd5b50565b60008135905061166781611641565b92915050565b600080600060608486031215611686576116856115f4565b5b60006116948682870161161f565b93505060206116a586828701611658565b92505060406116b68682870161161f565b9150509250925092565b6116c9816115fe565b82525050565b60006020820190506116e460008301846116c0565b92915050565b600080fd5b600080fd5b600080fd5b60008083601f84011261170f5761170e6116ea565b5b8235905067ffffffffffffffff81111561172c5761172b6116ef565b5b602083019150836001820283011115611748576117476116f4565b5b9250929050565b60008060208385031215611766576117656115f4565b5b600083013567ffffffffffffffff811115611784576117836115f9565b5b611790858286016116f9565b92509250509250929050565b600080600080608085870312156117b6576117b56115f4565b5b60006117c48782880161161f565b94505060206117d587828801611658565b93505060406117e68782880161161f565b92505060606117f78782880161161f565b91505092959194509250565b6000806040838503121561181a576118196115f4565b5b60006118288582860161161f565b925050602061183985828601611658565b9150509250929050565b6000806040838503121561185a576118596115f4565b5b60006118688582860161161f565b92505060206118798582860161161f565b9150509250929050565b600060208284031215611899576118986115f4565b5b60006118a78482850161161f565b91505092915050565b600081519050919050565b600082825260208201905092915050565b60005b838110156118ea5780820151818401526020810190506118cf565b60008484015250505050565b6000601f19601f8301169050919050565b6000611912826118b0565b61191c81856118bb565b935061192c8185602086016118cc565b611935816118f6565b840191505092915050565b60008115159050919050565b61195581611940565b82525050565b61196481611634565b82525050565b600060a08201905081810360008301526119848188611907565b905061199360208301876116c0565b6119a060408301866116c0565b6119ad606083018561194c565b6119ba608083018461195b565b9695505050505050565b6000819050919050565b60006119e96119e46119df84611598565b6119c4565b611598565b9050919050565b60006119fb826119ce565b9050919050565b6000611a0d826119f0565b9050919050565b611a1d81611a02565b82525050565b6000602082019050611a386000830184611a14565b92915050565b611a47816115b8565b8114611a5257600080fd5b50565b600081359050611a6481611a3e565b92915050565b600080600060608486031215611a8357611a826115f4565b5b6000611a9186828701611a55565b9350506020611aa28682870161161f565b9250506040611ab386828701611658565b9150509250925092565b7f4e487b7100000000000000000000000000000000000000000000000000000000600052601160045260246000fd5b6000611af7826115fe565b9150611b02836115fe565b9250828202611b10816115fe565b91508282048414831517611b2757611b26611abd565b5b5092915050565b7f4e487b7100000000000000000000000000000000000000000000000000000000600052601260045260246000fd5b6000611b68826115fe565b9150611b73836115fe565b925082611b8357611b82611b2e565b5b828204905092915050565b6000611b99826115fe565b9150611ba4836115fe565b9250828203905081811115611bbc57611bbb611abd565b5b92915050565b6000611bcd826115fe565b91507fffffffffffffffffffffffffffffffffffffffffffffffffffffffffffffffff8203611bff57611bfe611abd565b5b600182019050919050565b7f4e487b7100000000000000000000000000000000000000000000000000000000600052604160045260246000fd5b7f4e487b7100000000000000000000000000000000000000000000000000000000600052602260045260246000fd5b60006002820490506001821680611c8057607f821691505b602082108103611c9357611c92611c39565b5b50919050565b60008190508160005260206000209050919050565b60006020601f8301049050919050565b600082821b905092915050565b600060088302611cfb7fffffffffffffffffffffffffffffffffffffffffffffffffffffffffffffffff82611cbe565b611d058683611cbe565b95508019841693508086168417925050509392505050565b6000611d38611d33611d2e846115fe565b6119c4565b6115fe565b9050919050565b6000819050919050565b611d5283611d1d565b611d66611d5e82611d3f565b848454611ccb565b825550505050565b600090565b611d7b611d6e565b611d86818484611d49565b505050565b5b81811015611daa57611d9f600082611d73565b600181019050611d8c565b5050565b601f821115611def57611dc081611c99565b611dc984611cae565b81016020851015611dd8578190505b611dec611de485611cae565b830182611d8b565b50505b505050565b600082821c905092915050565b6000611e1260001984600802611df4565b1980831691505092915050565b6000611e2b8383611e01565b9150826002028217905092915050565b611e44826118b0565b67ffffffffffffffff811115611e5d57611e5c611c0a565b5b611e678254611c68565b611e72828285611dae565b600060209050601f831160018114611ea55760008415611e93578287015190505b611e9d8582611e1f565b865550611f05565b601f198416611eb386611c99565b60005b82811015611edb57848901518255600182019150602085019450602081019050611eb6565b86831015611ef85784890151611ef4601f891682611e01565b8355505b6001600288020188555050505b505050505050565b82818337600083830152505050565b6000611f2883856118bb565b9350611f35838584611f0d565b611f3e836118f6565b840190509392505050565b60006020820190508181036000830152611f64818486611f1c565b90509392505050565b6000611f78826115fe565b9150611f83836115fe565b9250828201905080821115611f9b57611f9a611abd565b5b92915050565b6000604082019050611fb660008301856115ca565b611fc360208301846116c0565b9392505050565b611fd381611940565b8114611fde57600080fd5b50565b600081519050611ff081611fca565b92915050565b60006020828403121561200c5761200b6115f4565b5b600061201a84828501611fe1565b91505092915050565b6000608082019050612038600083018761195b565b61204560208301866116c0565b61205260408301856116c0565b61205f60608301846115ca565b95945050505050565b7f416c7265616479207265736f6c76656400000000000000000000000000000000600082015250565b600061209e6010836118bb565b91506120a982612068565b602082019050919050565b600060208201905081810360008301526120cd81612091565b9050919050565b7f496e76616c6964206f7574636f6d650000000000000000000000000000000000600082015250565b600061210a600f836118bb565b9150612115826120d4565b602082019050919050565b60006020820190508181036000830152612139816120fd565b9050919050565b6000602082019050612155600083018461195b565b92915050565b600060608201905061217060008301866115ca565b61217d60208301856115ca565b61218a60408301846116c0565b949350505050565b7f4e6f74207265736f6c7665640000000000000000000000000000000000000000600082015250565b60006121c8600c836118bb565b91506121d382612192565b602082019050919050565b600060208201905081810360008301526121f7816121bb565b9050919050565b7f4e6f7468696e6720746f2072656465656d000000000000000000000000000000600082015250565b60006122346011836118bb565b915061223f826121fe565b602082019050919050565b6000602082019050818103600083015261226381612227565b905091905056fea26469706673582212202e4684e83a4c57c6b26805e70cff7d642a523fdaa754d43b8fb17b37f39ad16b64736f6c63430008180033","linkReferences":{}},"methodIdentifiers":{"addLiquidity(uint256,uint256)":"9cd441da","buyOutcome(uint256,uint8,uint256,uint256)":"dae046ae","collateral()":"d8dfeb45","createMarket(string)":"54888f55","feeBps()":"24a9d853","getBuyAmountOut(uint256,uint8,uint256)":"6e684c0d","getSellAmountOut(uint256,uint8,uint256)":"191d4248","getYesProbability(uint256)":"a7d1e1ef","marketCount()":"ec979082","markets(uint256)":"b1283e77","owner()":"8da5cb5b","positions(address,uint256,uint8)":"f96d035c","redeem(uint256)":"db006a75","resolve(uint256,uint8)":"9c0e1608","resolver()":"04f3bcec","sellOutcome(uint256,uint8,uint256,uint256)":"8b47645d"},"id":0}